{
  "contractName": "Election",
  "abi": [
    {
      "inputs": [],
      "stateMutability": "nonpayable",
      "type": "constructor"
    },
    {
      "inputs": [],
      "name": "ElectionState",
      "outputs": [
        {
          "internalType": "enum Election.PHASE",
          "name": "",
          "type": "uint8"
        }
      ],
      "stateMutability": "view",
      "type": "function",
      "constant": true
    },
    {
      "inputs": [],
      "name": "admin",
      "outputs": [
        {
          "internalType": "address",
          "name": "",
          "type": "address"
        }
      ],
      "stateMutability": "view",
      "type": "function",
      "constant": true
    },
    {
      "inputs": [
        {
          "internalType": "uint256",
          "name": "",
          "type": "uint256"
        }
      ],
      "name": "candidate_ids_list",
      "outputs": [
        {
          "internalType": "string",
          "name": "",
          "type": "string"
        }
      ],
      "stateMutability": "view",
      "type": "function",
      "constant": true
    },
    {
      "inputs": [
        {
          "internalType": "string",
          "name": "",
          "type": "string"
        }
      ],
      "name": "candidates",
      "outputs": [
        {
          "internalType": "string",
          "name": "candidate_id",
          "type": "string"
        },
        {
          "internalType": "string",
          "name": "candidate_name",
          "type": "string"
        },
        {
          "internalType": "string",
          "name": "candidate_partyName",
          "type": "string"
        },
        {
          "internalType": "string",
          "name": "candidate_imageName",
          "type": "string"
        },
        {
          "internalType": "uint256",
          "name": "candidate_age",
          "type": "uint256"
        },
        {
          "internalType": "uint256",
          "name": "candidate_totalVotes",
          "type": "uint256"
        },
        {
          "internalType": "bool",
          "name": "is_added",
          "type": "bool"
        }
      ],
      "stateMutability": "view",
      "type": "function",
      "constant": true
    },
    {
      "inputs": [],
      "name": "candidatesCount",
      "outputs": [
        {
          "internalType": "uint256",
          "name": "",
          "type": "uint256"
        }
      ],
      "stateMutability": "view",
      "type": "function",
      "constant": true
    },
    {
      "inputs": [
        {
          "internalType": "uint256",
          "name": "",
          "type": "uint256"
        }
      ],
      "name": "voter_ids_list",
      "outputs": [
        {
          "internalType": "string",
          "name": "",
          "type": "string"
        }
      ],
      "stateMutability": "view",
      "type": "function",
      "constant": true
    },
    {
      "inputs": [
        {
          "internalType": "string",
          "name": "",
          "type": "string"
        }
      ],
      "name": "voters",
      "outputs": [
        {
          "internalType": "string",
          "name": "voter_id",
          "type": "string"
        },
        {
          "internalType": "string",
          "name": "votedCandidate_id",
          "type": "string"
        },
        {
          "internalType": "bool",
          "name": "is_registerd",
          "type": "bool"
        },
        {
          "internalType": "bool",
          "name": "hasVoted",
          "type": "bool"
        }
      ],
      "stateMutability": "view",
      "type": "function",
      "constant": true
    },
    {
      "inputs": [],
      "name": "votersCount",
      "outputs": [
        {
          "internalType": "uint256",
          "name": "",
          "type": "uint256"
        }
      ],
      "stateMutability": "view",
      "type": "function",
      "constant": true
    },
    {
      "inputs": [
        {
          "internalType": "enum Election.PHASE",
          "name": "x",
          "type": "uint8"
        }
      ],
      "name": "changeState",
      "outputs": [],
      "stateMutability": "nonpayable",
      "type": "function"
    },
    {
      "inputs": [
        {
          "internalType": "string",
          "name": "_id",
          "type": "string"
        },
        {
          "internalType": "string",
          "name": "_name",
          "type": "string"
        },
        {
          "internalType": "string",
          "name": "_party",
          "type": "string"
        },
        {
          "internalType": "string",
          "name": "_image",
          "type": "string"
        },
        {
          "internalType": "uint256",
          "name": "_age",
          "type": "uint256"
        }
      ],
      "name": "addCandidate",
      "outputs": [],
      "stateMutability": "nonpayable",
      "type": "function"
    },
    {
      "inputs": [
        {
          "internalType": "string",
          "name": "_voter_id",
          "type": "string"
        }
      ],
      "name": "voterRegisteration",
      "outputs": [],
      "stateMutability": "nonpayable",
      "type": "function"
    },
    {
      "inputs": [
        {
          "internalType": "string",
          "name": "_id",
          "type": "string"
        },
        {
          "internalType": "string",
          "name": "_votedCandidate_id",
          "type": "string"
        }
      ],
      "name": "vote",
      "outputs": [],
      "stateMutability": "nonpayable",
      "type": "function"
    },
    {
      "inputs": [],
      "name": "getWinner",
      "outputs": [
        {
          "internalType": "string",
          "name": "",
          "type": "string"
        }
      ],
      "stateMutability": "view",
      "type": "function",
      "constant": true
    },
    {
      "inputs": [],
      "name": "addCandidateToResultList",
      "outputs": [],
      "stateMutability": "nonpayable",
      "type": "function"
    },
    {
      "inputs": [],
      "name": "getUpdatedCandidateList",
      "outputs": [
        {
          "components": [
            {
              "internalType": "string",
              "name": "candidate_id",
              "type": "string"
            },
            {
              "internalType": "string",
              "name": "candidate_name",
              "type": "string"
            },
            {
              "internalType": "string",
              "name": "candidate_partyName",
              "type": "string"
            },
            {
              "internalType": "string",
              "name": "candidate_imageName",
              "type": "string"
            },
            {
              "internalType": "uint256",
              "name": "candidate_age",
              "type": "uint256"
            },
            {
              "internalType": "uint256",
              "name": "candidate_totalVotes",
              "type": "uint256"
            },
            {
              "internalType": "bool",
              "name": "is_added",
              "type": "bool"
            }
          ],
          "internalType": "struct Election.Candidate[]",
          "name": "",
          "type": "tuple[]"
        }
      ],
      "stateMutability": "view",
      "type": "function",
      "constant": true
    },
    {
      "inputs": [],
      "name": "allCandidates",
      "outputs": [
        {
          "components": [
            {
              "internalType": "string",
              "name": "candidate_id",
              "type": "string"
            },
            {
              "internalType": "string",
              "name": "candidate_name",
              "type": "string"
            },
            {
              "internalType": "string",
              "name": "candidate_partyName",
              "type": "string"
            },
            {
              "internalType": "string",
              "name": "candidate_imageName",
              "type": "string"
            },
            {
              "internalType": "uint256",
              "name": "candidate_age",
              "type": "uint256"
            },
            {
              "internalType": "uint256",
              "name": "candidate_totalVotes",
              "type": "uint256"
            },
            {
              "internalType": "bool",
              "name": "is_added",
              "type": "bool"
            }
          ],
          "internalType": "struct Election.Candidate[]",
          "name": "",
          "type": "tuple[]"
        }
      ],
      "stateMutability": "view",
      "type": "function",
      "constant": true
    },
    {
      "inputs": [],
      "name": "getCandidateIdList",
      "outputs": [
        {
          "internalType": "string[]",
          "name": "",
          "type": "string[]"
        }
      ],
      "stateMutability": "view",
      "type": "function",
      "constant": true
    },
    {
      "inputs": [],
      "name": "getVoterIdList",
      "outputs": [
        {
          "internalType": "string[]",
          "name": "",
          "type": "string[]"
        }
      ],
      "stateMutability": "view",
      "type": "function",
      "constant": true
    },
    {
      "inputs": [],
      "name": "allVoters",
      "outputs": [
        {
          "components": [
            {
              "internalType": "string",
              "name": "voter_id",
              "type": "string"
            },
            {
              "internalType": "string",
              "name": "votedCandidate_id",
              "type": "string"
            },
            {
              "internalType": "bool",
              "name": "is_registerd",
              "type": "bool"
            },
            {
              "internalType": "bool",
              "name": "hasVoted",
              "type": "bool"
            }
          ],
          "internalType": "struct Election.Voter[]",
          "name": "",
          "type": "tuple[]"
        }
      ],
      "stateMutability": "view",
      "type": "function",
      "constant": true
    },
    {
      "inputs": [],
      "name": "resetAll",
      "outputs": [],
      "stateMutability": "nonpayable",
      "type": "function"
    }
  ],
  "bytecode": "0x60806040523480156200001157600080fd5b50336000806101000a81548173ffffffffffffffffffffffffffffffffffffffff021916908373ffffffffffffffffffffffffffffffffffffffff16021790555060008060146101000a81548160ff021916908360038111156200007a576200007962000085565b5b0217905550620000b4565b7f4e487b7100000000000000000000000000000000000000000000000000000000600052602160045260246000fd5b61398280620000c46000396000f3fe608060405234801561001057600080fd5b506004361061012c5760003560e01c806390b24c72116100ad578063d328821a11610071578063d328821a1461032a578063e103aef514610348578063e8d5940d14610352578063f851a4401461036e578063f9e7284f1461038c5761012c565b806390b24c721461025857806398c0793814610288578063a555d745146102a6578063ba3cde0b146102c4578063c5539cc2146102f45761012c565b806353fa2e64116100f457806353fa2e64146101b157806356581147146101e457806381c407151461020057806383e917cc1461021e5780638e7ea5b21461023a5761012c565b80630c09c5761461013157806311688f801461013b578063128eb08a14610159578063268f1153146101775780632d35a8a214610193575b600080fd5b6101396103aa565b005b6101436105d1565b604051610150919061267b565b60405180910390f35b6101616106aa565b60405161016e9190612844565b60405180910390f35b610191600480360381019061018c919061289f565b6109f6565b005b61019b610ab1565b6040516101a891906128db565b60405180910390f35b6101cb60048036038101906101c69190612a2b565b610ab7565b6040516101db9493929190612acd565b60405180910390f35b6101fe60048036038101906101f99190612a2b565b610c27565b005b610208610e25565b6040516102159190612844565b60405180910390f35b61023860048036038101906102339190612b4c565b6110fb565b005b61024261148c565b60405161024f9190612c37565b60405180910390f35b610272600480360381019061026d9190612c59565b611795565b60405161027f9190612c37565b60405180910390f35b610290611841565b60405161029d91906128db565b60405180910390f35b6102ae611847565b6040516102bb9190612cfd565b60405180910390f35b6102de60048036038101906102d99190612c59565b61185a565b6040516102eb9190612c37565b60405180910390f35b61030e60048036038101906103099190612a2b565b611906565b6040516103219796959493929190612d18565b60405180910390f35b610332611b8b565b60405161033f919061267b565b60405180910390f35b610350611c64565b005b61036c60048036038101906103679190612da3565b611eb5565b005b610376612188565b6040516103839190612e5c565b60405180910390f35b6103946121ac565b6040516103a19190612fa3565b60405180910390f35b60008054906101000a900473ffffffffffffffffffffffffffffffffffffffff1673ffffffffffffffffffffffffffffffffffffffff163373ffffffffffffffffffffffffffffffffffffffff1614610438576040517f08c379a000000000000000000000000000000000000000000000000000000000815260040161042f90613037565b60405180910390fd5b6002600381111561044c5761044b612c86565b5b600060149054906101000a900460ff16600381111561046e5761046d612c86565b5b146104ae576040517f08c379a00000000000000000000000000000000000000000000000000000000081526004016104a5906130a3565b60405180910390fd5b60005b6002805490508110156105ce5760046001600283815481106104d6576104d56130c3565b5b906000526020600020016040516104ed91906131f5565b908152602001604051809103902090806001815401808255809150506001900390600052602060002090600702016000909190919091506000820181600001908161053891906133b9565b506001820181600101908161054d91906133b9565b506002820181600201908161056291906133b9565b506003820181600301908161057791906133b9565b5060048201548160040155600582015481600501556006820160009054906101000a900460ff168160060160006101000a81548160ff021916908315150217905550505080806105c6906134d0565b9150506104b1565b50565b60606006805480602002602001604051908101604052809291908181526020016000905b828210156106a157838290600052602060002001805461061490613121565b80601f016020809104026020016040519081016040528092919081815260200182805461064090613121565b801561068d5780601f106106625761010080835404028352916020019161068d565b820191906000526020600020905b81548152906001019060200180831161067057829003601f168201915b5050505050815260200190600101906105f5565b50505050905090565b6060600260038111156106c0576106bf612c86565b5b600060149054906101000a900460ff1660038111156106e2576106e1612c86565b5b14610722576040517f08c379a0000000000000000000000000000000000000000000000000000000008152600401610719906130a3565b60405180910390fd5b6004805480602002602001604051908101604052809291908181526020016000905b828210156109ed57838290600052602060002090600702016040518060e001604052908160008201805461077790613121565b80601f01602080910402602001604051908101604052809291908181526020018280546107a390613121565b80156107f05780601f106107c5576101008083540402835291602001916107f0565b820191906000526020600020905b8154815290600101906020018083116107d357829003601f168201915b5050505050815260200160018201805461080990613121565b80601f016020809104026020016040519081016040528092919081815260200182805461083590613121565b80156108825780601f1061085757610100808354040283529160200191610882565b820191906000526020600020905b81548152906001019060200180831161086557829003601f168201915b5050505050815260200160028201805461089b90613121565b80601f01602080910402602001604051908101604052809291908181526020018280546108c790613121565b80156109145780601f106108e957610100808354040283529160200191610914565b820191906000526020600020905b8154815290600101906020018083116108f757829003601f168201915b5050505050815260200160038201805461092d90613121565b80601f016020809104026020016040519081016040528092919081815260200182805461095990613121565b80156109a65780601f1061097b576101008083540402835291602001916109a6565b820191906000526020600020905b81548152906001019060200180831161098957829003601f168201915b5050505050815260200160048201548152602001600582015481526020016006820160009054906101000a900460ff16151515158152505081526020019060010190610744565b50505050905090565b60008054906101000a900473ffffffffffffffffffffffffffffffffffffffff1673ffffffffffffffffffffffffffffffffffffffff163373ffffffffffffffffffffffffffffffffffffffff1614610a84576040517f08c379a0000000000000000000000000000000000000000000000000000000008152600401610a7b90613037565b60405180910390fd5b80600060146101000a81548160ff02191690836003811115610aa957610aa8612c86565b5b021790555050565b60085481565b600581805160208101820180518482526020830160208501208183528095505050505050600091509050806000018054610af090613121565b80601f0160208091040260200160405190810160405280929190818152602001828054610b1c90613121565b8015610b695780601f10610b3e57610100808354040283529160200191610b69565b820191906000526020600020905b815481529060010190602001808311610b4c57829003601f168201915b505050505090806001018054610b7e90613121565b80601f0160208091040260200160405190810160405280929190818152602001828054610baa90613121565b8015610bf75780601f10610bcc57610100808354040283529160200191610bf7565b820191906000526020600020905b815481529060010190602001808311610bda57829003601f168201915b5050505050908060020160009054906101000a900460ff16908060020160019054906101000a900460ff16905084565b60006003811115610c3b57610c3a612c86565b5b600060149054906101000a900460ff166003811115610c5d57610c5c612c86565b5b14610c9d576040517f08c379a0000000000000000000000000000000000000000000000000000000008152600401610c9490613564565b60405180910390fd5b60001515600582604051610cb191906135b5565b908152602001604051809103902060020160009054906101000a900460ff16151514610d12576040517f08c379a0000000000000000000000000000000000000000000000000000000008152600401610d0990613618565b60405180910390fd5b604051806080016040528082815260200160405180602001604052806000815250815260200160011515815260200160001515815250600582604051610d5891906135b5565b90815260200160405180910390206000820151816000019081610d7b9190613638565b506020820151816001019081610d919190613638565b5060408201518160020160006101000a81548160ff02191690831515021790555060608201518160020160016101000a81548160ff021916908315150217905550905050600681908060018154018082558091505060019003906000526020600020016000909190919091509081610e099190613638565b5060096000815480929190610e1d906134d0565b919050555050565b60606003805480602002602001604051908101604052809291908181526020016000905b828210156110f257838290600052602060002090600702016040518060e0016040529081600082018054610e7c90613121565b80601f0160208091040260200160405190810160405280929190818152602001828054610ea890613121565b8015610ef55780601f10610eca57610100808354040283529160200191610ef5565b820191906000526020600020905b815481529060010190602001808311610ed857829003601f168201915b50505050508152602001600182018054610f0e90613121565b80601f0160208091040260200160405190810160405280929190818152602001828054610f3a90613121565b8015610f875780601f10610f5c57610100808354040283529160200191610f87565b820191906000526020600020905b815481529060010190602001808311610f6a57829003601f168201915b50505050508152602001600282018054610fa090613121565b80601f0160208091040260200160405190810160405280929190818152602001828054610fcc90613121565b80156110195780601f10610fee57610100808354040283529160200191611019565b820191906000526020600020905b815481529060010190602001808311610ffc57829003601f168201915b5050505050815260200160038201805461103290613121565b80601f016020809104026020016040519081016040528092919081815260200182805461105e90613121565b80156110ab5780601f10611080576101008083540402835291602001916110ab565b820191906000526020600020905b81548152906001019060200180831161108e57829003601f168201915b5050505050815260200160048201548152602001600582015481526020016006820160009054906101000a900460ff16151515158152505081526020019060010190610e49565b50505050905090565b60008054906101000a900473ffffffffffffffffffffffffffffffffffffffff1673ffffffffffffffffffffffffffffffffffffffff163373ffffffffffffffffffffffffffffffffffffffff1614611189576040517f08c379a000000000000000000000000000000000000000000000000000000000815260040161118090613037565b60405180910390fd5b6000600381111561119d5761119c612c86565b5b600060149054906101000a900460ff1660038111156111bf576111be612c86565b5b146111ff576040517f08c379a00000000000000000000000000000000000000000000000000000000081526004016111f690613564565b60405180910390fd5b6000151560018660405161121391906135b5565b908152602001604051809103902060060160009054906101000a900460ff16151514611274576040517f08c379a000000000000000000000000000000000000000000000000000000000815260040161126b90613618565b60405180910390fd5b6040518060e0016040528086815260200185815260200184815260200183815260200182815260200160008152602001600115158152506001866040516112bb91906135b5565b908152602001604051809103902060008201518160000190816112de9190613638565b5060208201518160010190816112f49190613638565b50604082015181600201908161130a9190613638565b5060608201518160030190816113209190613638565b506080820151816004015560a0820151816005015560c08201518160060160006101000a81548160ff02191690831515021790555090505060028590806001815401808255809150506001900390600052602060002001600090919091909150908161138c9190613638565b50600360018660405161139f91906135b5565b90815260200160405180910390209080600181540180825580915050600190039060005260206000209060070201600090919091909150600082018160000190816113ea91906133b9565b50600182018160010190816113ff91906133b9565b506002820181600201908161141491906133b9565b506003820181600301908161142991906133b9565b5060048201548160040155600582015481600501556006820160009054906101000a900460ff168160060160006101000a81548160ff021916908315150217905550505060086000815480929190611480906134d0565b91905055505050505050565b6060600260038111156114a2576114a1612c86565b5b600060149054906101000a900460ff1660038111156114c4576114c3612c86565b5b14611504576040517f08c379a00000000000000000000000000000000000000000000000000000000081526004016114fb90613756565b60405180910390fd5b60006001600260008154811061151d5761151c6130c3565b5b9060005260206000200160405161153491906131f5565b9081526020016040518091039020600501549050600060016002600081548110611561576115606130c3565b5b9060005260206000200160405161157891906131f5565b9081526020016040518091039020600001805461159490613121565b80601f01602080910402602001604051908101604052809291908181526020018280546115c090613121565b801561160d5780601f106115e25761010080835404028352916020019161160d565b820191906000526020600020905b8154815290600101906020018083116115f057829003601f168201915b505050505090506000600190505b60028054905081101561178c5760016002828154811061163e5761163d6130c3565b5b9060005260206000200160405161165591906131f5565b90815260200160405180910390206005015483101561177957600160028281548110611684576116836130c3565b5b9060005260206000200160405161169b91906131f5565b90815260200160405180910390206005015492506001600282815481106116c5576116c46130c3565b5b906000526020600020016040516116dc91906131f5565b908152602001604051809103902060000180546116f890613121565b80601f016020809104026020016040519081016040528092919081815260200182805461172490613121565b80156117715780601f1061174657610100808354040283529160200191611771565b820191906000526020600020905b81548152906001019060200180831161175457829003601f168201915b505050505091505b8080611784906134d0565b91505061161b565b50809250505090565b600681815481106117a557600080fd5b9060005260206000200160009150905080546117c090613121565b80601f01602080910402602001604051908101604052809291908181526020018280546117ec90613121565b80156118395780601f1061180e57610100808354040283529160200191611839565b820191906000526020600020905b81548152906001019060200180831161181c57829003601f168201915b505050505081565b60095481565b600060149054906101000a900460ff1681565b6002818154811061186a57600080fd5b90600052602060002001600091509050805461188590613121565b80601f01602080910402602001604051908101604052809291908181526020018280546118b190613121565b80156118fe5780601f106118d3576101008083540402835291602001916118fe565b820191906000526020600020905b8154815290600101906020018083116118e157829003601f168201915b505050505081565b60018180516020810182018051848252602083016020850120818352809550505050505060009150905080600001805461193f90613121565b80601f016020809104026020016040519081016040528092919081815260200182805461196b90613121565b80156119b85780601f1061198d576101008083540402835291602001916119b8565b820191906000526020600020905b81548152906001019060200180831161199b57829003601f168201915b5050505050908060010180546119cd90613121565b80601f01602080910402602001604051908101604052809291908181526020018280546119f990613121565b8015611a465780601f10611a1b57610100808354040283529160200191611a46565b820191906000526020600020905b815481529060010190602001808311611a2957829003601f168201915b505050505090806002018054611a5b90613121565b80601f0160208091040260200160405190810160405280929190818152602001828054611a8790613121565b8015611ad45780601f10611aa957610100808354040283529160200191611ad4565b820191906000526020600020905b815481529060010190602001808311611ab757829003601f168201915b505050505090806003018054611ae990613121565b80601f0160208091040260200160405190810160405280929190818152602001828054611b1590613121565b8015611b625780601f10611b3757610100808354040283529160200191611b62565b820191906000526020600020905b815481529060010190602001808311611b4557829003601f168201915b5050505050908060040154908060050154908060060160009054906101000a900460ff16905087565b60606002805480602002602001604051908101604052809291908181526020016000905b82821015611c5b578382906000526020600020018054611bce90613121565b80601f0160208091040260200160405190810160405280929190818152602001828054611bfa90613121565b8015611c475780601f10611c1c57610100808354040283529160200191611c47565b820191906000526020600020905b815481529060010190602001808311611c2a57829003601f168201915b505050505081526020019060010190611baf565b50505050905090565b60008054906101000a900473ffffffffffffffffffffffffffffffffffffffff1673ffffffffffffffffffffffffffffffffffffffff163373ffffffffffffffffffffffffffffffffffffffff1614611cf2576040517f08c379a0000000000000000000000000000000000000000000000000000000008152600401611ce990613037565b60405180910390fd5b600380811115611d0557611d04612c86565b5b600060149054906101000a900460ff166003811115611d2757611d26612c86565b5b14611d67576040517f08c379a0000000000000000000000000000000000000000000000000000000008152600401611d5e906137c2565b60405180910390fd5b6000600981905550600060088190555060005b600280549050811015611df1576000600160028381548110611d9f57611d9e6130c3565b5b90600052602060002001604051611db691906131f5565b908152602001604051809103902060060160006101000a81548160ff0219169083151502179055508080611de9906134d0565b915050611d7a565b5060026000611e009190612365565b60036000611e0e9190612386565b60046000611e1c9190612386565b60005b600680549050811015611e96576000600560068381548110611e4457611e436130c3565b5b90600052602060002001604051611e5b91906131f5565b908152602001604051809103902060020160006101000a81548160ff0219169083151502179055508080611e8e906134d0565b915050611e1f565b5060066000611ea59190612365565b60076000611eb391906123aa565b565b60016003811115611ec957611ec8612c86565b5b600060149054906101000a900460ff166003811115611eeb57611eea612c86565b5b14611f2b576040517f08c379a0000000000000000000000000000000000000000000000000000000008152600401611f2290613854565b60405180910390fd5b60011515600583604051611f3f91906135b5565b908152602001604051809103902060020160009054906101000a900460ff16151514611fa0576040517f08c379a0000000000000000000000000000000000000000000000000000000008152600401611f97906138c0565b60405180910390fd5b60001515600583604051611fb491906135b5565b908152602001604051809103902060020160019054906101000a900460ff16151514612015576040517f08c379a000000000000000000000000000000000000000000000000000000000815260040161200c9061392c565b60405180910390fd5b600160058360405161202791906135b5565b908152602001604051809103902060020160016101000a81548160ff021916908315150217905550600760058360405161206191906135b5565b90815260200160405180910390209080600181540180825580915050600190039060005260206000209060030201600090919091909150600082018160000190816120ac91906133b9565b50600182018160010190816120c191906133b9565b506002820160009054906101000a900460ff168160020160006101000a81548160ff0219169083151502179055506002820160019054906101000a900460ff168160020160016101000a81548160ff02191690831515021790555050508060058360405161212f91906135b5565b9081526020016040518091039020600101908161214c9190613638565b5060018160405161215d91906135b5565b9081526020016040518091039020600501600081548092919061217f906134d0565b91905055505050565b60008054906101000a900473ffffffffffffffffffffffffffffffffffffffff1681565b60606007805480602002602001604051908101604052809291908181526020016000905b8282101561235c578382906000526020600020906003020160405180608001604052908160008201805461220390613121565b80601f016020809104026020016040519081016040528092919081815260200182805461222f90613121565b801561227c5780601f106122515761010080835404028352916020019161227c565b820191906000526020600020905b81548152906001019060200180831161225f57829003601f168201915b5050505050815260200160018201805461229590613121565b80601f01602080910402602001604051908101604052809291908181526020018280546122c190613121565b801561230e5780601f106122e35761010080835404028352916020019161230e565b820191906000526020600020905b8154815290600101906020018083116122f157829003601f168201915b505050505081526020016002820160009054906101000a900460ff161515151581526020016002820160019054906101000a900460ff161515151581525050815260200190600101906121d0565b50505050905090565b508054600082559060005260206000209081019061238391906123ce565b50565b50805460008255600702906000526020600020908101906123a791906123f2565b50565b50805460008255600302906000526020600020908101906123cb919061246d565b50565b5b808211156123ee57600081816123e591906124cc565b506001016123cf565b5090565b5b80821115612469576000808201600061240c91906124cc565b60018201600061241c91906124cc565b60028201600061242c91906124cc565b60038201600061243c91906124cc565b600482016000905560058201600090556006820160006101000a81549060ff0219169055506007016123f3565b5090565b5b808211156124c8576000808201600061248791906124cc565b60018201600061249791906124cc565b6002820160006101000a81549060ff02191690556002820160016101000a81549060ff02191690555060030161246e565b5090565b5080546124d890613121565b6000825580601f106124ea5750612509565b601f016020900490600052602060002090810190612508919061250c565b5b50565b5b8082111561252557600081600090555060010161250d565b5090565b600081519050919050565b600082825260208201905092915050565b6000819050602082019050919050565b600081519050919050565b600082825260208201905092915050565b60005b8381101561258f578082015181840152602081019050612574565b60008484015250505050565b6000601f19601f8301169050919050565b60006125b782612555565b6125c18185612560565b93506125d1818560208601612571565b6125da8161259b565b840191505092915050565b60006125f183836125ac565b905092915050565b6000602082019050919050565b600061261182612529565b61261b8185612534565b93508360208202850161262d85612545565b8060005b85811015612669578484038952815161264a85826125e5565b9450612655836125f9565b925060208a01995050600181019050612631565b50829750879550505050505092915050565b600060208201905081810360008301526126958184612606565b905092915050565b600081519050919050565b600082825260208201905092915050565b6000819050602082019050919050565b6000819050919050565b6126dc816126c9565b82525050565b60008115159050919050565b6126f7816126e2565b82525050565b600060e083016000830151848203600086015261271a82826125ac565b9150506020830151848203602086015261273482826125ac565b9150506040830151848203604086015261274e82826125ac565b9150506060830151848203606086015261276882826125ac565b915050608083015161277d60808601826126d3565b5060a083015161279060a08601826126d3565b5060c08301516127a360c08601826126ee565b508091505092915050565b60006127ba83836126fd565b905092915050565b6000602082019050919050565b60006127da8261269d565b6127e481856126a8565b9350836020820285016127f6856126b9565b8060005b85811015612832578484038952815161281385826127ae565b945061281e836127c2565b925060208a019950506001810190506127fa565b50829750879550505050505092915050565b6000602082019050818103600083015261285e81846127cf565b905092915050565b6000604051905090565b600080fd5b600080fd5b6004811061288757600080fd5b50565b6000813590506128998161287a565b92915050565b6000602082840312156128b5576128b4612870565b5b60006128c38482850161288a565b91505092915050565b6128d5816126c9565b82525050565b60006020820190506128f060008301846128cc565b92915050565b600080fd5b600080fd5b7f4e487b7100000000000000000000000000000000000000000000000000000000600052604160045260246000fd5b6129388261259b565b810181811067ffffffffffffffff8211171561295757612956612900565b5b80604052505050565b600061296a612866565b9050612976828261292f565b919050565b600067ffffffffffffffff82111561299657612995612900565b5b61299f8261259b565b9050602081019050919050565b82818337600083830152505050565b60006129ce6129c98461297b565b612960565b9050828152602081018484840111156129ea576129e96128fb565b5b6129f58482856129ac565b509392505050565b600082601f830112612a1257612a116128f6565b5b8135612a228482602086016129bb565b91505092915050565b600060208284031215612a4157612a40612870565b5b600082013567ffffffffffffffff811115612a5f57612a5e612875565b5b612a6b848285016129fd565b91505092915050565b600082825260208201905092915050565b6000612a9082612555565b612a9a8185612a74565b9350612aaa818560208601612571565b612ab38161259b565b840191505092915050565b612ac7816126e2565b82525050565b60006080820190508181036000830152612ae78187612a85565b90508181036020830152612afb8186612a85565b9050612b0a6040830185612abe565b612b176060830184612abe565b95945050505050565b612b29816126c9565b8114612b3457600080fd5b50565b600081359050612b4681612b20565b92915050565b600080600080600060a08688031215612b6857612b67612870565b5b600086013567ffffffffffffffff811115612b8657612b85612875565b5b612b92888289016129fd565b955050602086013567ffffffffffffffff811115612bb357612bb2612875565b5b612bbf888289016129fd565b945050604086013567ffffffffffffffff811115612be057612bdf612875565b5b612bec888289016129fd565b935050606086013567ffffffffffffffff811115612c0d57612c0c612875565b5b612c19888289016129fd565b9250506080612c2a88828901612b37565b9150509295509295909350565b60006020820190508181036000830152612c518184612a85565b905092915050565b600060208284031215612c6f57612c6e612870565b5b6000612c7d84828501612b37565b91505092915050565b7f4e487b7100000000000000000000000000000000000000000000000000000000600052602160045260246000fd5b60048110612cc657612cc5612c86565b5b50565b6000819050612cd782612cb5565b919050565b6000612ce782612cc9565b9050919050565b612cf781612cdc565b82525050565b6000602082019050612d126000830184612cee565b92915050565b600060e0820190508181036000830152612d32818a612a85565b90508181036020830152612d468189612a85565b90508181036040830152612d5a8188612a85565b90508181036060830152612d6e8187612a85565b9050612d7d60808301866128cc565b612d8a60a08301856128cc565b612d9760c0830184612abe565b98975050505050505050565b60008060408385031215612dba57612db9612870565b5b600083013567ffffffffffffffff811115612dd857612dd7612875565b5b612de4858286016129fd565b925050602083013567ffffffffffffffff811115612e0557612e04612875565b5b612e11858286016129fd565b9150509250929050565b600073ffffffffffffffffffffffffffffffffffffffff82169050919050565b6000612e4682612e1b565b9050919050565b612e5681612e3b565b82525050565b6000602082019050612e716000830184612e4d565b92915050565b600081519050919050565b600082825260208201905092915050565b6000819050602082019050919050565b60006080830160008301518482036000860152612ec082826125ac565b91505060208301518482036020860152612eda82826125ac565b9150506040830151612eef60408601826126ee565b506060830151612f0260608601826126ee565b508091505092915050565b6000612f198383612ea3565b905092915050565b6000602082019050919050565b6000612f3982612e77565b612f438185612e82565b935083602082028501612f5585612e93565b8060005b85811015612f915784840389528151612f728582612f0d565b9450612f7d83612f21565b925060208a01995050600181019050612f59565b50829750879550505050505092915050565b60006020820190508181036000830152612fbd8184612f2e565b905092915050565b7f596f7520646f6e742068617665207065726d697373696f6e20746f207065726660008201527f6f726d207468697320616374696f6e0000000000000000000000000000000000602082015250565b6000613021602f83612a74565b915061302c82612fc5565b604082019050919050565b6000602082019050818103600083015261305081613014565b9050919050565b7f526573756c74205068617365204973204e6f7420537461727465640000000000600082015250565b600061308d601b83612a74565b915061309882613057565b602082019050919050565b600060208201905081810360008301526130bc81613080565b9050919050565b7f4e487b7100000000000000000000000000000000000000000000000000000000600052603260045260246000fd5b7f4e487b7100000000000000000000000000000000000000000000000000000000600052602260045260246000fd5b6000600282049050600182168061313957607f821691505b60208210810361314c5761314b6130f2565b5b50919050565b600081905092915050565b60008190508160005260206000209050919050565b6000815461317f81613121565b6131898186613152565b945060018216600081146131a457600181146131b9576131ec565b60ff19831686528115158202860193506131ec565b6131c28561315d565b60005b838110156131e4578154818901526001820191506020810190506131c5565b838801955050505b50505092915050565b60006132018284613172565b915081905092915050565b60008154905061321b81613121565b9050919050565b60006020601f8301049050919050565b600082821b905092915050565b60006008830261326f7fffffffffffffffffffffffffffffffffffffffffffffffffffffffffffffffff82613232565b6132798683613232565b95508019841693508086168417925050509392505050565b6000819050919050565b60006132b66132b16132ac846126c9565b613291565b6126c9565b9050919050565b6000819050919050565b6132d08361329b565b6132e46132dc826132bd565b84845461323f565b825550505050565b600090565b6132f96132ec565b6133048184846132c7565b505050565b5b818110156133285761331d6000826132f1565b60018101905061330a565b5050565b601f82111561336d5761333e8161315d565b61334784613222565b81016020851015613356578190505b61336a61336285613222565b830182613309565b50505b505050565b600082821c905092915050565b600061339060001984600802613372565b1980831691505092915050565b60006133a9838361337f565b9150826002028217905092915050565b8181036133c757505061349f565b6133d08261320c565b67ffffffffffffffff8111156133e9576133e8612900565b5b6133f38254613121565b6133fe82828561332c565b6000601f83116001811461342d576000841561341b578287015490505b613425858261339d565b865550613498565b601f19841661343b8761315d565b96506134468661315d565b60005b8281101561346e57848901548255600182019150600185019450602081019050613449565b8683101561348b5784890154613487601f89168261337f565b8355505b6001600288020188555050505b5050505050505b565b7f4e487b7100000000000000000000000000000000000000000000000000000000600052601160045260246000fd5b60006134db826126c9565b91507fffffffffffffffffffffffffffffffffffffffffffffffffffffffffffffffff820361350d5761350c6134a1565b5b600182019050919050565b7f526567697374726174696f6e207068617365206973206f766572000000000000600082015250565b600061354e601a83612a74565b915061355982613518565b602082019050919050565b6000602082019050818103600083015261357d81613541565b9050919050565b600061358f82612555565b6135998185613152565b93506135a9818560208601612571565b80840191505092915050565b60006135c18284613584565b915081905092915050565b7f596f7520416c7265616479205265676973746572656400000000000000000000600082015250565b6000613602601683612a74565b915061360d826135cc565b602082019050919050565b60006020820190508181036000830152613631816135f5565b9050919050565b61364182612555565b67ffffffffffffffff81111561365a57613659612900565b5b6136648254613121565b61366f82828561332c565b600060209050601f8311600181146136a25760008415613690578287015190505b61369a858261339d565b865550613702565b601f1984166136b08661315d565b60005b828110156136d8578489015182556001820191506020850194506020810190506136b3565b868310156136f557848901516136f1601f89168261337f565b8355505b6001600288020188555050505b505050505050565b7f566f74696e67206973206e6f7420636f6d706c65746564207965740000000000600082015250565b6000613740601b83612a74565b915061374b8261370a565b602082019050919050565b6000602082019050818103600083015261376f81613733565b9050919050565b7f456c656374696f6e206973206e6f74204f766572207965740000000000000000600082015250565b60006137ac601883612a74565b91506137b782613776565b602082019050919050565b600060208201905081810360008301526137db8161379f565b9050919050565b7f43757272656e746c7920456c656374696f6e206973206e6f742073746172746560008201527f64206f7220456c656374696f6e206973206f7665720000000000000000000000602082015250565b600061383e603583612a74565b9150613849826137e2565b604082019050919050565b6000602082019050818103600083015261386d81613831565b9050919050565b7f5265676973746572206669727374000000000000000000000000000000000000600082015250565b60006138aa600e83612a74565b91506138b582613874565b602082019050919050565b600060208201905081810360008301526138d98161389d565b9050919050565b7f596f75206861766520616c726561647920766f74656400000000000000000000600082015250565b6000613916601683612a74565b9150613921826138e0565b602082019050919050565b6000602082019050818103600083015261394581613909565b905091905056fea2646970667358221220443481ab4400284c1785486c0db835eab7ed9309601148461dcf2666dc5f7d6664736f6c63430008100033",
  "immutableReferences": {},
  "source": "// SPDX-License-Identifier: MIT\npragma solidity >=0.4.22 <0.9.0;\n\ncontract Election {\n    address public admin;\n\n    // ----------------- PHASES  -----------------\n    enum PHASE {\n        registration,\n        voting,\n        done,\n        reset\n    }\n    PHASE public ElectionState;\n\n    // ----------------- Candidate Schema -----------------\n    struct Candidate {\n        string candidate_id;\n        string candidate_name;\n        string candidate_partyName;\n        string candidate_imageName;\n        uint256 candidate_age;\n        uint256 candidate_totalVotes;\n        bool is_added;\n    }\n\n    mapping(string => Candidate) public candidates;\n    string[] public candidate_ids_list;\n    Candidate[] candidatesList;\n    Candidate[] resultCandidatesList;\n\n    // ----------------- Voter Schema -----------------\n    struct Voter {\n        string voter_id;\n        string votedCandidate_id;\n        bool is_registerd;\n        bool hasVoted;\n    }\n\n    mapping(string => Voter) public voters;\n    string[] public voter_ids_list;\n    Voter[] votersList;\n\n    // ----------------- Modifiers -----------------\n    modifier onlyAdmin() {\n        require(\n            msg.sender == admin,\n            \"You dont have permission to perform this action\"\n        );\n        _;\n    }\n\n    uint256 public candidatesCount;\n    uint256 public votersCount;\n\n    // ----------------- Constructor -----------------\n    constructor() {\n        admin = msg.sender;\n        ElectionState = PHASE.registration;\n    }\n\n    // ----------------- function -----------------\n    function changeState(PHASE x) public onlyAdmin {\n        ElectionState = x;\n    }\n\n    //----------------- Add Candidate ------------------------\n    function addCandidate(\n        string memory _id,\n        string memory _name,\n        string memory _party,\n        string memory _image,\n        uint256 _age\n    ) public onlyAdmin {\n        require(\n            ElectionState == PHASE.registration,\n            \"Registration phase is over\"\n        );\n        require(candidates[_id].is_added == false, \"You Already Registered\");\n        candidates[_id] = Candidate(_id, _name, _party, _image, _age, 0, true);\n        candidate_ids_list.push(_id);\n        candidatesList.push(candidates[_id]);\n        candidatesCount++;\n    }\n\n    //----------------- Voting Registration -----------------\n    function voterRegisteration(string memory _voter_id) public {\n        require(\n            ElectionState == PHASE.registration,\n            \"Registration phase is over\"\n        );\n        require(\n            voters[_voter_id].is_registerd == false,\n            \"You Already Registered\"\n        );\n        voters[_voter_id] = Voter(_voter_id, \"\", true, false);\n        voter_ids_list.push(_voter_id);\n        votersCount++;\n    }\n\n    //----------------- Vote -----------------\n    function vote(string memory _id, string memory _votedCandidate_id) public {\n        require(\n            ElectionState == PHASE.voting,\n            \"Currently Election is not started or Election is over\"\n        );\n        require(voters[_id].is_registerd == true, \"Register first\");\n        require(voters[_id].hasVoted == false, \"You have already voted\");\n        voters[_id].hasVoted = true;\n        votersList.push(voters[_id]);\n        voters[_id].votedCandidate_id = _votedCandidate_id;\n        candidates[_votedCandidate_id].candidate_totalVotes++;\n    }\n\n    //----------------- Election Results -----------------\n    function getWinner() public view returns (string memory) {\n        require(ElectionState == PHASE.done, \"Voting is not completed yet\");\n        uint256 maxVotes = candidates[candidate_ids_list[0]]\n            .candidate_totalVotes;\n        string memory winner_id = candidates[candidate_ids_list[0]]\n            .candidate_id;\n        for (uint256 i = 1; i < candidate_ids_list.length; i++) {\n            if (\n                maxVotes <\n                candidates[candidate_ids_list[i]].candidate_totalVotes\n            ) {\n                maxVotes = candidates[candidate_ids_list[i]]\n                    .candidate_totalVotes;\n                winner_id = candidates[candidate_ids_list[i]].candidate_id;\n            }\n        }\n        return winner_id;\n    }\n\n    //----------------- Add Candidate To Result List ------------------------\n    function addCandidateToResultList() public onlyAdmin {\n        require(ElectionState == PHASE.done, \"Result Phase Is Not Started\");\n        for (uint256 i = 0; i < candidate_ids_list.length; i++) {\n            resultCandidatesList.push(candidates[candidate_ids_list[i]]);\n        }\n    }\n\n    //----------------- Get Result CandidateList ------------------------\n    function getUpdatedCandidateList()\n        public\n        view\n        returns (Candidate[] memory)\n    {\n        require(ElectionState == PHASE.done, \"Result Phase Is Not Started\");\n        return resultCandidatesList;\n    }\n\n    //----------------- Get CandidateList ------------------------\n    function allCandidates() public view returns (Candidate[] memory) {\n        return candidatesList;\n    }\n\n    //----------------- Get CandidateIdList ------------------------\n    function getCandidateIdList() public view returns (string[] memory) {\n        return candidate_ids_list;\n    }\n\n    //----------------- Get VoterIdList ------------------------\n    function getVoterIdList() public view returns (string[] memory) {\n        return voter_ids_list;\n    }\n\n    //----------------- Get VoterList ------------------------\n    function allVoters() public view returns (Voter[] memory) {\n        return votersList;\n    }\n\n    // ----------------- Reset All  ------------------------\n    function resetAll() public onlyAdmin {\n        require(ElectionState == PHASE.reset, \"Election is not Over yet\");\n\n        votersCount = 0;\n        candidatesCount = 0;\n\n        for (uint256 i = 0; i < candidate_ids_list.length; i++) {\n            candidates[candidate_ids_list[i]].is_added = false;\n        }\n\n        delete candidate_ids_list;\n        delete candidatesList;\n        delete resultCandidatesList;\n\n        for (uint256 i = 0; i < voter_ids_list.length; i++) {\n            voters[voter_ids_list[i]].is_registerd = false;\n        }\n\n        delete voter_ids_list;\n        delete votersList;\n    }\n}\n",
  "sourcePath": "C:\\Users\\zeelr\\OneDrive\\Desktop\\Blockchain Voting System\\contracts\\Election.sol",
  "compiler": {
    "name": "solc",
    "version": "0.8.16+commit.07a7930e.Emscripten.clang"
  },
  "schemaVersion": "3.4.9",
  "updatedAt": "2022-11-10T10:10:41.974Z",
  "networkType": "ethereum",
  "devdoc": {
    "kind": "dev",
    "methods": {},
    "version": 1
  },
  "userdoc": {
    "kind": "user",
    "methods": {},
    "version": 1
  }
}